:020000040000FA
:0400000010EF00F00D
:020004000000FA
:10002000956A946A936A010E926E0F0EC16E000E6D
:10003000C26E910EC06E836A826A809280948096AE
:10004000A4EC00F0360E8C6EC8EC00F03B0E8C6E0B
:10005000C8EC00F0390E8C6EC8EC00F03B0E8C6ED4
:10006000C8EC00F0310E8C6EC8EC00F03B0E8C6ECC
:10007000C8EC00F0350E8C6EC8EC00F03B0E8C6EB8
:10008000C8EC00F0330E8C6EC8EC00F03B0E8C6EAA
:10009000C8EC00F0320E8C6EC8EC00F03B0E8C6E9B
:1000A000C8EC00F0340E8C6EC8EC00F03B0E8C6E89
:1000B000C8EC00F0300E8C6EC8EC00F080B05EEF43
:1000C00000F080A061EF00F0CFEC00F0300E8C6EFD
:1000D000C8EC00F03B0E8C6EC8EC00F0310E8C6E5C
:1000E000C8EC00F03B0E8C6EC8EC00F0320E8C6E4B
:1000F000C8EC00F03B0E8C6EC8EC00F0330E8C6E3A
:10010000C8EC00F03B0E8C6EC8EC00F0340E8C6E28
:10011000C8EC00F03B0E8C6EC8EC00F0350E8C6E17
:10012000C8EC00F03B0E8C6EC8EC00F0360E8C6E06
:10013000C8EC00F03B0E8C6EC8EC00F0390E8C6EF3
:10014000C8EC00F0A2EF00F08092010E8C6EC0ECC3
:1001500000F0380E8C6EC0EC00F00E0E8C6EC0EC11
:1001600000F0060E8C6EC0EC00F0020E8C6EC0EC3F
:1001700000F012008092010E8C6EC0EC00F01200B4
:100180008096E1EC00F08086E1EC00F080961200B1
:100190008082E1EC00F0C0EC00F0809212008092CE
:1001A000C00E8C6EC0EC00F01200130ED56E670E00
:1001B000D76E690ED66ED58EF2A4DCEF00F0F29405
:1001C0001200530ED56EB10ED66ED58EF2A4E6EFA8
:0601D00000F0F2941200A1
:020000040030CA
:010000003CC3
:010001000CF2
:0100020018E5
:010003001EDE
:01000500807A
:010006008178
:00000001FF
