:020000040000FA
:0400000010EF00F00D
:020004000000FA
:10002000956A000EF86E500EF76E000EF66E240EF6
:10003000336E0900F550336220EF00F026EF00F038
:100040008C6E0A0E45EC00F019EF00F026EF00F080
:10005000200EB16E820EB26EFF0EB36EB180A1A201
:100060002FEF00F0A1921200306E200EB16E1D0E27
:10007000B26EFB0EB36EB180A1A23CEF00F0A19274
:10008000B190302E37EF00F01200306E200EB16EBE
:100090000B0EB26EDB0EB36EB180A1A24DEF00F07D
:0C00A000A192B190302E48EF00F0120049
:0C50000000010203040506070809240053
:020000040030CA
:010000003CC3
:010001000CF2
:0100020018E5
:010003001EDE
:01000500807A
:010006008178
:00000001FF
