:020000040000FA
:0400000010EF00F00D
:020004000000FA
:10002000956AF00E936EF19E926E0F0EC16E000EE9
:10003000F86E020EF76E000EF66EFE0E336E346A28
:1000400033C08AFF3EEC00F081CF34F0345033628D
:1000500031EF00F03346EF0E336220EF00F01DEF7A
:1000600000F04BEC00F037C08CFFF66A37500F0BF6
:10007000F6260800F5CF89FF1DEF00F00A0E316E5D
:10008000FA0E326E00000000322E42EF00F0312EE8
:1000900040EF00F0120034C08CFF34C035F034C0A3
:1000A00036F00F0E35160E0E35625BEF00F0000EC7
:1000B000356E71EF00F00D0E356263EF00F0010E4A
:1000C000356E71EF00F00B0E35626BEF00F0020E33
:1000D000356E71EF00F0070E356271EF00F0030E20
:1000E000356EF00E3616E00E36627BEF00F0000E35
:1000F000366E91EF00F0D00E366283EF00F0010E05
:10010000366E91EF00F0B00E36628BEF00F0020E0B
:10011000366E91EF00F0700E366291EF00F0030E34
:10012000366E354635463550362636C037F0120025
:100200000708090A0405060B0102030C0F00000E83
:020210000D00DF
:020000040030CA
:010000003CC3
:010001000CF2
:0100020018E5
:010003001EDE
:01000500807A
:010006008178
:00000001FF
