:020000040000FA
:0400000010EF00F00D
:020004000000FA
:10002000956AAFEC00F0010E006E800E0024D8EC53
:1000300000F0000EF86E500EF76E000EF66E240EF5
:10004000376E0900F550376228EF00F02CEF00F012
:10005000EBEC00F021EF00F0140E9EEC00F0000E2F
:10006000F86E500EF76E180EF66E240E376E010EF7
:10007000016EC00E0124D8EC00F00900F550376283
:1000800044EF00F048EF00F0EBEC00F03DEF00F043
:10009000280E9EEC00F0FEEC00F0000EF86E500E04
:1000A000F76E340EF66E240E376E050E056E800E5A
:1000B0000524D8EC00F00900F550376262EF00F03B
:1000C00066EF00F0EBEC00F05BEF00F0000EF86E76
:1000D000500EF76E4C0EF66E240E376E060E066E40
:1000E000C00E0624D8EC00F00900F55037627BEF13
:1000F00000F07FEF00F0EBEC00F074EF00F07FEF2A
:1001000000F0200EB16E820EB26EFF0EB36EB180A3
:10011000A1A288EF00F0A1921200306E200EB16E05
:100120001D0EB26EFB0EB36EB180A1A295EF00F072
:10013000A192B190302E90EF00F01200306E200EA0
:10014000B16E0B0EB26EDB0EB36EB180A1A2A6EF44
:1001500000F0A192B190302EA1EF00F012000F0E2E
:100160008DEC00F0300E8C6E8C8400008C94050EAB
:100170008DEC00F0300E8C6E8C8400008C9481EC41
:1001800000F0300E8C6E8C8400008C9481EC00F0BA
:10019000020ED8EC00F0280ED8EC00F0010ED8ECDE
:1001A00000F00C0ED8EC00F0060ED8EC00F01200B7
:1001B000356E336EF00E3316040E33108C6E8C9445
:1001C000353AF00E3516040E35108C6E8C94030EF5
:1001D0008DEC00F01200366E336EF00E3316050E05
:1001E00033108C6E8C94363AF00E3616050E36109F
:1001F0008C6E8C94030E8DEC00F01200010ED8EC86
:0802000000F08DEC00F012008B
:10500000455350454A4F20544F525245532020207B
:1050100020202020202024004855414348494C4C62
:105020004F2053454241535449414E2020202020D7
:1050300020202400455350454A4F20544F5252459A
:1050400053202020202020202020240048554143A8
:1050500048494C4C4F2053454241535449414E20FE
:0E50600020202020202020202020202024009E
:020000040030CA
:010000003CC3
:010001000CF2
:0100020018E5
:010003001EDE
:01000500807A
:010006008178
:00000001FF
